:020000040800F2
:100000002010002049010008013B00089B2900083E
:10001000093900085D030008494400080000000099
:10002000000000000000000000000000653E000825
:100030009703000800000000033B0008673E00082B
:100040006301000863010008630100086301000800
:1000500063010008630100086301000863010008F0
:1000600063010008630100086301000863010008E0
:1000700063010008610300086301000863010008D0
:1000800063010008630100087D02000863010008A5
:100090006301000863010008630100089903000878
:1000A00063010008630100086301000863010008A0
:1000B0006301000863010008630100086301000890
:1000C000630100086301000863010008AD3C0008FB
:1000D0006301000825440008314400083D4400083D
:1000E0006301000863010008630100086301000860
:1000F0006301000863010008630100086301000850
:100100006301000863010008E93E0008630100087C
:100110009941000863010008F53E0008013F00080E
:10012000630100086301000863010008630100081F
:10013000DFF810D000F080F8004800478950000830
:10014000AFF3008020100020064880470648004793
:10015000FEE7FEE7FEE7FEE7FEE7FEE7FEE7FEE777
:10016000FEE7FEE7E53E000831010008202A04DB37
:10017000203A21FA02F00021704721FA02F3D04020
:10018000C2F12002914008431946704740EA01033A
:100190009B0703D009E008C9121F08C0042AFAD23D
:1001A00003E011F8013B00F8013B521EF9D2704701
:1001B000D2B201E000F8012B491EFBD270470022A9
:1001C000F6E710B513460A4604461946FFF7F0FF56
:1001D000204610BD2DE9F05F0546002092469B4663
:1001E00088460646814640241BE02846414647464D
:1001F0002246FFF7BBFF53465A46C01A914110D31F
:1002000011461846224600F029F82D1A67EB01081E
:100210004F4622460120002100F020F817EB00098C
:100220004E41201EA4F10104DFDC484631462A4637
:100230004346BDE8F09F0000064C074D06E0E0682D
:1002400040F0010394E8070098471034AC42F6D31D
:10025000FFF772FFA00C0108C00C0108202A04DB84
:10026000203A00FA02F1002070479140C2F12003C9
:1002700020FA03F31943904070470000014800F052
:100280005CBA00002C00002070B50446006881684C
:10029000C943C90717D1816821F00101816000F0CD
:1002A00025FF05460AE000BF00F020FF401B0228A2
:1002B00004D920688068C043C00706D020688068E1
:1002C000C043C007F0D0002070BDA06A40F010000D
:1002D000A062E06A40F00100E062012070BD000011
:1002E000F8B500260446009600688168C943C9072E
:1002F0002DD0816841F001018160164816490068DF
:10030000B0FBF1F000E0401E00900028FBD100F0AF
:10031000EDFE054616E000BF00F0E8FE401B022897
:1003200010D920688068C043C0070BD0A06A40F095
:100330001000A062E06A40F00100E06284F82460EE
:100340000120F8BD20688068C043C007E4D10020C8
:10035000F8BD00001000002040420F00FEE7000042
:10036000014800F0FDBB0000B400002030B590F85B
:1003700040500124AC40C56B6C6004686360436806
:10038000102B036803D099600068C26030BD9A608A
:100390000068C16030BD7047402000F095BD72B666
:1003A000FEE700002DE9FF4140F2CC615148CDE964
:1003B00000011E231A4603210D2002F0BBFF4FF45B
:1003C000E1614D48CDE900011E231A460321372083
:1003D00002F0B0FF40F292614848CDE900011D23D0
:1003E0001A460321612002F0A5FF04F0A1FB444C52
:1003F000444D45A2208800902B88FF21112003F056
:1004000081FB2B88228841A10C208DE80F00034638
:100410000246102140F2271002F060FF04F0D0FBEA
:1004200004F030FB05F000F9208800904FF4967737
:100430002B8835A239463C2003F064FB20880090CD
:100440002B8831A23946672003F05CFB208800909E
:100450002B882DA23946902003F054FB04F024FF92
:100460004FF400662A48CDE9000620231A46C12130
:10047000192002F05FFF29882088CDE900011823A8
:100480002522C321672002F059FE04F021FC2148F7
:10049000CDE9000620231A46C1218A2002F04AFF36
:1004A00004F0A4FE40F62C211B48CDE900011F23D7
:1004B0002A22C121E92002F03DFF48F230442423E2
:1004C0004FF4A07219460120009402F093FC4BF601
:1004D000404040220090A0232D21104602F08AFCCB
:1004E000B3233A4619461420009402F083FCBDE879
:1004F000FF810000DC560008B0640008B86B0008FB
:100500002200002024000020B6C80000524800004D
:1005100072A3000872AB000872B300080E480322F1
:1005200000210270417082703222C2700522027175
:100530004271012282714B238372C3720373C173B0
:10054000017441748274C274027504480170417070
:100550008170C170704700009D05002014000020CC
:10056000F8B500250446009590F8240001280BD02A
:10057000012084F824002046FFF786FE2046FFF77E
:10058000AFFE060002D050E00220F8BDA06A20F4C1
:10059000885040F00200A062022000F045FE25498C
:1005A0000968B1FBF0F0400000E0401E0090002818
:1005B000FBD12068816841F00801816000F096FD60
:1005C000074608E000F092FDC01B0A2803D9206806
:1005D0008068000715D4206880680007F2D420687E
:1005E000816841F00401816000F080FD074612E05F
:1005F00000F07CFDC01B0A280DD9206880684007E8
:1006000009D5A06A20F0020040F01000A06284F832
:1006100024500120F8BD206880684007E8D4A06A13
:1006200020F0020040F00100A06284F8245030461F
:10063000F8BD00001000002070470000F8B500244D
:10064000009490F824202546012A12D0012280F837
:1006500024204A681F23072A0DD20668776B521E92
:1006600002EB820293409F430B6893401F437763E2
:1006700019E00220F8BD06680D2A0AD2376BD21F96
:1006800002EB820293409F430B6893401F43376302
:1006900009E0F76A0D3A02EB820293409F430B6830
:1006A00093401F43F7620A68072306680A2A0AD3A1
:1006B000F7680A3A02EB420293409F438B689340EB
:1006C0001F43F76008E0376902EB420293409F4303
:1006D0008B6893401F4337610A68102A01D0112AA2
:1006E00020D1124B02689A4217D193681B0219D489
:1006F000936843F4000393600968102912D10C49F0
:100700000C4A0968B1FBF2F101EB8101490000E0FC
:10071000491E00910029FBD104E0816A41F02001CB
:100720008162012480F824502046F8BD0024014055
:100730001000002040420F00704770B5044600686A
:1007400006684568A90625D5B10723D5A16AC9065B
:1007500003D4A16A41F40071A1628168C1F34241EE
:10076000072910D1217B71B9416821F02001416036
:10077000A06A20F48070A062A06AC00403D4A06ABA
:1007800040F00100A0622046FFF7D6FF21686FF01D
:100790001200086028062ED570072CD5A06AC00666
:1007A00003D4A06A40F40050A06220688168C1F3BD
:1007B0000231072909D04168490515D48168C1F380
:1007C0004241072910D1217B71B9416821F0800194
:1007D0004160A06A20F48050A062A06AC00503D4E2
:1007E000A06A40F00100A0622046FFF725FF2168C3
:1007F0006FF00C00086068060CD5F0070AD0A06AFC
:1008000040F48030A062204600F096F821686FF036
:100810000100086070BD00002DE9F04104004FF0B8
:1008200000057FD0A06A002628B9E66284F824601B
:10083000204600F083F82046FFF726FDA16AC9068E
:1008400000D420B1A06A40F01000A0626AE0A16A62
:1008500021F4885141F00201A162334923688B429F
:10086000E16904D1B1F5402F01D14FF40021277B7C
:100870004FF4807C41EA470261680A43A168614500
:1008800008D0012906D0002194F814E0BEF1010F30
:1008900002D00AE06146F7E7C7B1A76A47F0200730
:1008A000A762E76A47F00107E7625F6827F46947D4
:1008B0000F435F60236899681C4F3940114399606A
:1008C000A16861450BD0012909D00CE0DFF860E098
:1008D000A7690EEB47370F4347F40061E5E7218A2C
:1008E0000D05A5F580152168CB6A23F470032B4311
:1008F000CB62216889680F4B1940914208D1E662AA
:10090000A16A21F0020141F00101A162BDE8F0817C
:10091000A06A20F0020040F01000A062E06A40F0FF
:100920000100E0620120F1E7003C0140FDF7E1FF3A
:1009300000E0FFFFFE0E1FFF7047000010B586B0FD
:1009400000210091019102910391006821498842A0
:100950003DD12148816941F400718161816901F4CF
:1009600000710491816941F010018161816901F098
:1009700010010491816941F004018161816901F0F4
:1009800004010491816941F00801816180690324B7
:1009900000F0080004900F20CDE9000469460F48DC
:1009A00000F09EFA1020CDE9000469460C4800F0E2
:1009B00097FA009469460B48019400F091FA0022DE
:1009C0001146122000F0FEFB122000F0EDFB06B0F5
:1009D00010BD000000240140001002400010014042
:1009E00000080140000C014010B590F821100022D1
:1009F000022905D00421816380F82020012010BD48
:100A000001680B6823F00E030B6001680B6823F08C
:100A100001030B6090F84030C46B012101FA03F32D
:100A2000636080F8211080F82020104610BD00007F
:100A30002DE9F05F90F821100024022903D0042151
:100A40008163012485E001680A6822F00E020A60D1
:100A500001680A6822F001020A603F4E3E4FB2155B
:100A6000DFF8F4C0DFF8F090DFF8ECA0DFF8E8B0D2
:100A7000DFF8E4E00168783F13011502ACF1640C83
:100A8000A9F15009AAF13C0AABF1280BAEF1140E02
:100A90004FF48018B14227D9B9420ED0614512D027
:100AA00049451DD0514518D0594518D0714501D13F
:100AB000424615E0294EB14201D1012210E0274EF5
:100AC0001436B14201D110220AE0244E2836B14238
:100AD00006D0224A3C32914201D11A4600E02A4611
:100AE0001E49091F0A602BE0B94213D0614517D097
:100AF000494522D051451DD059451DD0714501D1E0
:100B000042461AE0B14202D14FF0807215E0134E16
:100B1000B14201D1012210E0104E1436B14201D190
:100B200010220AE00D4E2836B14206D00B4A3C3264
:100B3000914201D11A4600E02A46074980394A60AD
:100B4000012180F82110002180F82010416B01B1B3
:100B500088472046BDE8F09F80000240080402401C
:100B60002DE9F05FC16B0A6801680B68046C4FF0F7
:100B7000040808FA04F8844D844E854FDFF814C247
:100B8000DFF81492DFF814A2DFF814B2DFF814E2F1
:100B900018EA020F65D05FEA437862D50A689206C8
:100BA00003D40A6822F004020A60DFF8F0814FF4EF
:100BB0008062016808F1140813011402414524D928
:100BC000A9420DD0B1420FD0B9421AD0614515D01B
:100BD000494515D0514501D1120312E0594501D1C3
:100BE00004220EE0714501D140220AE06D4D14351A
:100BF000A94206D06B4A2832914201D11A4600E040
:100C000022466749091F0A6029E0A94213D0B14270
:100C100015D0B94220D061451BD049451BD0514564
:100C200002D14FF4800217E0414502D14FF08062BB
:100C300012E0594501D104220EE0714501D1402254
:100C40000AE0584D1435A94206D0564A283291423E
:100C500001D11A4600E022464B4908394A60C16A70
:100C600071E04FF0020808FA04F818EA020F70D099
:100C70005FEA83786DD50A68920606D40A6822F086
:100C80000A020A60012180F82110DFF810814FF478
:100C90000072016808F1140813011402414524D9B7
:100CA000A9420DD0B1420FD0B9421AD0614515D03A
:100CB000494515D0514501D1120312E0594501D1E2
:100CC00002220EE0714501D120220AE0354D143593
:100CD000A94206D0334A2832914201D11A4600E097
:100CE00022462F49091F0A6029E0A94213D0B142C8
:100CF00015D0B94220D061451BD049451BD0514584
:100D000002D14FF4001217E0414502D14FF00072BA
:100D100012E0594501D102220EE0714501D1202295
:100D20000AE0204D1435A94206D01E4A28329142CD
:100D300001D11A4600E02246134908394A600021D1
:100D400080F82010816A00291CD0BDE8F05F0847B8
:100D5000FFE70825A540154214D01A0712D50A68E6
:100D600022F00E020A6090F84020C36B012101FAC4
:100D700002F25A60816380F82110002180F820106F
:100D8000016BE0E7BDE8F09F080002401C00024054
:100D90003000024044000240580002406C00024013
:100DA000080402401C04024030B560B11A4B0268CE
:100DB00014219A4209D2194B1344B3FBF1F1890073
:100DC000016417490AE0012030BD134B5B42134414
:100DD000B3FBF1F1890001640F490839C1630221B5
:100DE00080F82110136843F6F0718B43F0E9011489
:100DF0002143D0E902452C4321430469214344693E
:100E00002143846921431943116000214163012278
:100E100042770177084630BD08040240F8FFFDBF65
:100E20000000024070B5044690F82000002501281B
:100E30000CD0012084F8200094F821600020012EBD
:100E400006D084F820000225284670BD022070BD1F
:100E5000022684F82160A0632068066826F0010657
:100E600006602046FFF782FAE06A002820680168E1
:100E700002D041F00E0106E021F00401016020687B
:100E8000016841F00A0101602068016841F0010138
:100E90000160D9E770B5044600F028F90546601CEA
:100EA00002D004480078044400F020F9401BA0421E
:100EB000FAD370BD04000020402802D1014901206E
:100EC000087070471C000020044910B50A680242EF
:100ED00002D00860FFF7F0FF10BD000014040140CD
:100EE0002DE9F84FDFF8C8910024A9F1040B23463F
:100EF0000F2709F1040AABF1040ED1E00125A5404A
:100F000006EA0502AA4276D1DFF8A8C14E68A6EB30
:100F10000C0866452BD00DDC032E34D005DC36B32F
:100F2000012E19D0022E2FD11BE0112E16D0122E19
:100F30002AD119E0B8F5881F19D006DCB8F5803F32
:100F400015D0B8F5801F1FD111E0B8F5001F0ED0E5
:100F5000B8F5041F18D10AE0CB6815E0CB681B1D5B
:100F600012E0CB6808330FE0CB680C330CE08B68E1
:100F70002BB1012B4FF0080303D0456104E004239B
:100F800002E0056100E00023FF2A01D8064601E0E7
:100F900000F104064FEA840501D9A5F12005D6F831
:100FA000008007FA05FC28EA0C0803FA05F548EA70
:100FB0000508C6F800804D68ED0070D53E4DAE695D
:100FC00046F00106AE61AD6924F0030605F00105A7
:100FD00000953A4D06EB050CDCF80850A607360FD5
:100FE00007FA06F825EA0805DFF8D480404503D162
:100FF0004FF0000825E052E0DFF8C880404502D1FC
:101000004FF001081DE0DFF8C080404502D14FF0ED
:10101000020816E0DFF8B480404502D14FF0030823
:101020000FE0DFF8AC80404502D14FF0040808E043
:10103000DFF8A080404502D14FF0050801E04FF0F5
:10104000060808FA06F848EA0508CCF808804D6852
:10105000D9F80060ED024D4601D5164300E09643F5
:101060002E604D68DAF80060AD02554601D5164392
:1010700000E096432E604D68DBF80060AD035D46EE
:1010800001D5164300E096432E604D68DEF80060FF
:10109000ED03754601D5164300E096432E60641CAF
:1010A0000A681646E2407FF429AFBDE8F88F0000D9
:1010B000080401400000111000100240000001402F
:1010C00000080140000C01400010014000140140E4
:1010D00000180140001C01408068084000D0012039
:1010E00070470AB1016170470904FBE70148806855
:1010F0007047000004000020024881680278114413
:101100008160704704000020074810B5016841F075
:1011100010010160032000F075F80F2000F006F8C0
:1011200000F024F8002010BD0020024070B50D4DE5
:1011300004464FF47A712878B1FBF0F00A49096847
:10114000B1FBF0F000F0F1FD48B9102C07D20022FD
:101150002146501E00F036F800206C6070BD012062
:1011600070BD000004000020100000200C4808B5ED
:10117000816941F001018161816901F00101009102
:10118000C16941F08051C161C06900F08050009098
:101190000448416821F0E06141F00071416008BD00
:1011A0000010024000000140002809DB00F01F028F
:1011B000012191404009800000F1E020C0F80011B9
:1011C00070470000F0B40E4B1B680C46C3F30223BB
:1011D000C3F10705042D00D90425191D072901D2E3
:1011E000002300E0DB1E012606FA05F1491E21401E
:1011F00099409E40761E16403143F0BC03F036B94C
:101200000CED00E0064900F0070208684FF6FF0306
:10121000184040EA0220034A10430860704700006B
:101220000CED00E00000FA0510B501460020284C46
:1012300004292FD00BDC012930D0022929D100F05C
:101240006BF96168C1F38131491C49001FE008292D
:1012500020D010291DD161682268D20119D51D48FE
:10126000C1F38342C903805C0AD56168194AC1F39E
:101270004041921E515C184AB2FBF1F1484301E033
:10128000164948436168490203D440000321B0FB7A
:10129000F1F010BDBDE8104000F04EB9226AC2F373
:1012A0000121012903D1920701D5C80310BD0229EC
:1012B00005D1626A920702D549F6404010BD032964
:1012C000FCD121688903F9D54FF2244010BD0000FC
:1012D00000100240B456000800127A0000093D00D8
:1012E0002DE9F84305460078354CC00754D0E06935
:1012F0000026C00008D4E06940F08050E061E06959
:10130000012600F0805000902E480168C90512D4D3
:101310000168804641F480710160FFF7E7FE0746EF
:1013200005E000BFFFF7E2FEC01B642823D8D8F811
:101330000000C005F6D5206A10F4407021D0A988BD
:1013400001F4407181421CD0206A1F49012220F41F
:1013500040700A6000220A602062C00711D0FFF7C7
:10136000C5FE074641F2883808E000BFFFF7BEFE21
:10137000C11B414502D90320BDE8F883206A8007DC
:10138000F4D5206A696820F44070084320621EB1D9
:10139000E06920F08050E0612878800705D560681A
:1013A000A96820F44040084360602878C00605D54D
:1013B0006068696920F48000084360600020DBE712
:1013C0000010024000700040400442422DE9F04706
:1013D0000F46050061D0434E306800F00700B84268
:1013E00009D2306820F0070038433060306800F0E0
:1013F0000700B84251D128683B4C810712D54007FD
:1014000003D5606840F4E06060602878000703D589
:10141000606840F4605060606068A96820F0F00087
:10142000084360602878C00728D06868012810D079
:101430002168022810D0890700292EDA616821F07E
:10144000030101436160FFF751FE804641F2883994
:101450000DE021688903EFE78901EDE7FFF746FE1C
:10146000A0EB0801494502D90320BDE8F087606878
:10147000696800F00C00B0EB810FEFD1306800F02C
:101480000700B8420BD9306820F0070038433060BD
:10149000306800F00700B84201D00120E5E7287865
:1014A000400705D56068E96820F4E06008436060A3
:1014B0002878000706D56068296920F4605040EA62
:1014C000C100606000F038F86168084AC1F3031198
:1014D000515CC8400649086006480068FFF726FED0
:1014E0000020C2E70020024000100240C45600085D
:1014F00010000020080000200448054900684968E1
:10150000044AC1F30221515CC8407047100000201A
:1015100000100240D4560008044805490068496894
:10152000044AC1F3C221515CC8407047100000203A
:1015300000100240D45600080E4A51680E4801F0CF
:101540000C03042B11D0082B0FD10C48C1F383439B
:10155000C903C05C0AD55168084AC1F34041921ED4
:10156000515C054A5043B0FBF1F0704704494843D1
:10157000704700000010024000127A00A2560008D6
:1015800000093D002DE9F84F040070D02078C04DCF
:10159000C00749D06868C0F38100012807D0686897
:1015A000C0F38100022809D16868C00306D5286805
:1015B000800339D560680028E7D035E06068B0F571
:1015C000803F0BD010B1B0F5A02F11D0286820F4C7
:1015D00080302860286820F4802002E0286840F4E9
:1015E00080302860606890B1FFF780FD06460AE011
:1015F000286840F480202860F0E700BFFFF776FD00
:10160000801B642873D828688003F7D50CE0FFF7A7
:101610006DFD064605E000BFFFF768FD801B6428EE
:10162000F0D828688003F7D420789A4E80074FF0CE
:1016300001094FF0000839D5686810F00C0F07D089
:101640006868C0F38100022809D16868C00306D425
:101650002868800714D52069012808D110E0206986
:10166000B0B1C6F80090FFF741FD074605E00AE17A
:10167000FFF73CFDC01B0228C4D828688007F7D5B7
:101680002868616920F0F80040EAC10028600DE098
:10169000C6F80080FFF72AFD074604E0FFF726FDA5
:1016A000C01B022823D828688007F7D420780007B9
:1016B0002CD57948A169D9B1C0F80090FFF716FD83
:1016C000074604E0FFF712FDC01B02280FD8686A26
:1016D0008007F7D571484FF4FA510068B0FBF1F07C
:1016E000009000BF0098411E0091FAD20EE080E009
:1016F000C0F80080FFF7FAFC074604E0FFF7F6FCAD
:10170000C01B022875D8686A8007F7D42078400784
:1017100060D5E8690027C00008D4E86940F080502F
:10172000E861E869012700F0805000905C4801689A
:10173000C90513D40168834641F480710160FFF745
:10174000D5FC824606E000BFFFF7D0FCA0EB0A0004
:1017500064284ED8DBF80000C005F5D5E068012804
:101760000AD008B1052813D0286A20F001002862A9
:10177000286A20F0040002E0286A40F00100286294
:10178000E06841F2883B98B1FFF7B0FC82460BE07D
:10179000286A40F004002862EEE700BFFFF7A6FCCD
:1017A000A0EB0A0159455AD8286A8007F6D50CE003
:1017B000FFF79CFC824605E0FFF798FCA0EB0A01CE
:1017C00059454CD8286A8007F6D41FB1E86920F043
:1017D0008050E861E06988B36968C1F3810102293A
:1017E00044D00228C6F8608004D0FFF77FFC04468E
:1017F00038E034E0FFF77AFC074604E0FFF776FCB8
:10180000C01B02282BD828688001F7D4206AB0F5C5
:10181000803F05D16868A16820F400300843686003
:10182000D4E908010843696821F474110843686029
:10183000C6F86090FFF75AFC044606E025E000BFBA
:10184000FFF754FC001B022809D828688001F7D54F
:101850001BE000BFFFF74AFC001B022802D903204F
:10186000BDE8F88F28688001F4D40EE00128F7D095
:101870006868226A00F48031914204D1616A00F400
:101880007010884201D00120EAE70020E8E700005C
:10189000001002400000424280044242100000203A
:1018A000007000407047000038B504460068426888
:1018B0008168C9434B0606D5CB0704D1D3435B06E9
:1018C00001D4216C05E08B0708D4D3431B0605D453
:1018D000616C01B02046BDE8304008478B0601D559
:1018E0004B0646D4D3439B0643D44B060AD494F804
:1018F0005130032B3ED0636D43F004036365C3682E
:1019000083680093890609D4616D41F00101616526
:1019100081680091016821F040010160606D00283C
:1019200027D02068416821F0E0014160012084F85F
:101930005100900722D02068416821F003014160E6
:10194000104DE06C40B14563E06CFFF771F818B1E1
:10195000606D40F040006065A06C002809D04563D0
:10196000A06CFFF765F8002803D0606D40F04000E0
:10197000606538BDC1688068009038BD2046FFF7BB
:1019800091FF38BDD93C000870B5040009D0606AE9
:10199000002540B125616561A56294F8510040B110
:1019A0000CE0012070BD6068B0F5827FF4D0E56185
:1019B000F2E784F85050204600F040F8022084F806
:1019C00051002068016821F040010160A088218950
:1019D00000F4827001F404410843A18901F400611C
:1019E0000843217C01F002010843217D01F001013F
:1019F0000843218B01F400710843217F01F0380175
:101A0000084394F8201001F080010843218D01F46F
:101A10000051084321680860A069042101EA1040D0
:101A2000216848602068C16921F40061C161656571
:101A3000012084F85100002070BD000070B586B010
:101A400000250646009501950295039500681E49FC
:101A5000884236D11D49886940F480508861886980
:101A600000F480500490886940F00400886188691F
:101A7000694600F004000490A0200090022001902C
:101A8000032003901248FFF72BFA134C11482060F3
:101A90001020C4E901058020C4E903056561A56142
:101AA0002046E561FFF780F908B1FEF778FCB464E1
:101AB0000022114623206662FFF784FB2320FFF7F4
:101AC00073FB06B070BD0000003001400010024002
:101AD0000008014030000240B40000202DE9F84F1A
:101AE000984616468A460446FFF700FB814694F85E
:101AF000510001281ED1BAF1000F73D0002E71D011
:101B000094F85000012815D0012784F85070032064
:101B100084F8510000256565C4F830A0A686E686E5
:101B2000A563A587E58765642564A068B0F5004FC7
:101B300003D00CE00220BDE8F88F2068016821F096
:101B4000400101602068016841F480410160206823
:101B50000168490603D4016841F040010160E06872
:101B6000B0F5006F606803D048B3012E27D047E07E
:101B700008B1012E1FD1206B21680088C86006E0E3
:101B800020688168890709D5216B0988C160206BAD
:101B9000801C2063E08E401EE0860CE0FFF7A6FA72
:101BA000A0EB0901414503D3B8F1FF3F03D035E075
:101BB000B8F1000F32D0E08E0028E1D123E0206B95
:101BC00021680078087306E02068816889070AD5D3
:101BD000216B09780173206B401C2063E08E401E4E
:101BE000E0860DE02BE0FFF781FAA0EB090141450B
:101BF00003D3B8F1FF3F03D010E0B8F1000F0DD0D0
:101C0000E08E0028E0D14A464146204602F0B4F872
:101C100008B120206065A06830B109E084F85170F7
:101C200084F85050032086E72068C16880680090DF
:101C300084F8517004F8505F60680028F3D00120E8
:101C400079E7000070B5044690F8510001281CD1D6
:101C5000C9B1C2B194F85000012816D0012084F80F
:101C60005000032084F85100002565652163A28699
:101C7000E286A56365642564A587E587A068B0F55D
:101C8000004F04D00DE0012070BD022070BD20681F
:101C9000016821F0400101602068016841F4804141
:101CA0000160A16C1748C862A16C17488862A16CDA
:101CB00016480863A06C4563E38E2268216B0C32E2
:101CC000A06CFFF7AFF830B1606D40F010006065B8
:101CD00084F85050D7E720680168490603D40168AA
:101CE00041F04001016084F850502068416841F0A3
:101CF000200141602068416841F0020141600020FC
:101D000070BD00000B3D0008153D0008E93C0008CF
:101D100000680349884202D10249012008707047D7
:101D20000030014020000020704710B5401EB0F187
:101D3000807F01D3012010BD4FF0E02460610F21AE
:101D4000601702F093FB0020A061072020610020B3
:101D500010BD70477047000070B590F83C20012A14
:101D60002CD0012480F83C40022280F83D200368FA
:101D70005A689D6822F070060A6832435A60104B18
:101D800002689A420ED00F4B9A420BD0B2F1804FAC
:101D900008D00D4B9A4205D00C4B9A4202D00C4B06
:101DA0009A4204D1496825F080031943916080F874
:101DB0003D40002180F83C10084670BD022070BDF7
:101DC000002C0140003401400004004000080040A5
:101DD000000C004010B5040003D094F83D0010B191
:101DE00007E0012010BD002084F83C00204600F0F0
:101DF0001FF8022084F83D00211D206802F086F8BB
:101E0000012084F8460084F83E0084F83F0084F8FE
:101E1000400084F8410084F8420084F8430084F8CC
:101E2000440084F8450084F83D00002010BD000007
:101E300008B5234A01682348914208D1C16941F09D
:101E40000401C161C06900F00400009008BD1E4A91
:101E500091420ED1C16941F00801C161C0690022FF
:101E600000F00800009011463220FFF7ABF9322055
:101E700022E0164A91420ED1C16941F01001C161C0
:101E8000C069002200F01000009011463620FFF7D4
:101E900099F9362010E00E4A9142D7D1C16941F03C
:101EA0002001C161C069002200F0200000901146AD
:101EB0003720FFF787F93720BDE80840FFF774B9EE
:101EC0000008004000100240000C004000100040DC
:101ED0000014004090F83D10012901D00120704706
:101EE000022180F83D100168CA6842F00102CA6010
:101EF00000680E4988420ED00D4988420BD0B0F1DF
:101F0000804F08D00B49884205D00B49884202D047
:101F10000A49884204D1816801F00701062903D0EB
:101F2000016841F00101016000207047002C014070
:101F3000003401400004004000080040000C004054
:101F400070B5044690F83C000025012817D0012602
:101F500084F83C60022084F83D002068826822F00A
:101F6000770222F47F4282600868502838D00DDC66
:101F700020284FD005DC90B3102811D14AE0022070
:101F800070BD302846D040280AD13BE060282FD0D1
:101F900070280DD0B0F5805F03D0B0F5005F12D08F
:101FA000012584F83D60002084F83C00284670BD7F
:101FB000CB68D1E90121206801F0F6FF2068816833
:101FC00041F0770109E0CB68D1E90121206801F0F7
:101FD000EBFF2068816841F480418160E1E719E00E
:101FE000CA684968206802F0B3F85021206806E00A
:101FF000CA684968206802F0BCF86021206801F0D6
:10200000DDFFCEE7CA684968206802F0A1F84021E8
:102010002068F4E7226801461046F0E770472DE992
:10202000F04104460068C66805694FF00007A9073B
:1020300013D5B10711D5F91E016101202077206861
:1020400080698007204602D0FFF7E8FF04E000F037
:10205000A5F8204600F037F92777680716D57007EE
:1020600014D521686FF004000861022020772068F1
:10207000806910F4407F204602D0FFF7CFFF04E0D4
:1020800000F08CF8204600F01EF92777280715D5B8
:10209000300713D521686FF008000861042020770D
:1020A0002068C0698007204602D0FFF7B7FF04E030
:1020B00000F074F8204600F006F92777E80616D5F8
:1020C000F00614D521686FF0100008610820207711
:1020D0002068C06910F4407F204602D0FFF79EFFC1
:1020E00004E000F05BF8204600F0EDF82777E80701
:1020F00008D0F00706D021686FF001000861204683
:1021000000F0E2F8280608D5300606D521686FF001
:10211000800008612046FFF71CFE680608D570069F
:1021200006D521686FF040000861204600F038F9BC
:10213000A8060AD5B00608D521686FF0200008610E
:102140002046BDE8F041FFF705BEBDE8F081000084
:1021500000B585B0002100910191029103910068C2
:102160000B49884212D10B48816941F00801816115
:102170008069694600F0080004904FF440700090B8
:102180000220019003900448FEF7AAFE05B000BDAE
:102190000008004000100240000C0140704770B57C
:1021A000044690F83C0000260D4601280FD001207F
:1021B00084F83C006AB1042A1DD0082A2FD00C2ACA
:1021C0003FD00126002084F83C00304670BD02203C
:1021D00070BD206801F0FAFE2068816941F00801B5
:1021E00081612068816921F0040181612068816931
:1021F0002A69114311E0206801F018FF2068816905
:1022000041F4006181612068816921F4806181610C
:10221000206881692A6941EA02218161D2E7206848
:1022200001F03AFF2068C16941F00801C1612068EE
:10223000C16921F00401C1612068C1692A691143A3
:1022400011E0206801F05CFF2068C16941F4006181
:10225000C1612068C16921F48061C1612068C169E0
:102260002A6941EA0221C161ACE710B5040003D03C
:1022700094F83D0010B107E0012010BD002084F863
:102280003C00204600F01EF8022084F83D00211D8D
:10229000206801F03BFE012084F8460084F83E00EF
:1022A00084F83F0084F8400084F8410084F842003C
:1022B00084F8430084F8440084F8450084F83D0025
:1022C000002010BD7047704730B52D4A01680123CA
:1022D00014680022A14229D12A4D2B492C783CB9FF
:1022E0000C78641CE4B20C70052C01D12B700A70C0
:1022F000264CE578012D01D125782DB14A70244C6A
:1023000094F86B504DB111E04D786D1CEDB24D70ED
:102310001E2DF4D14A702370F1E78D786D1CEDB25B
:102320008D70642D02D38A7084F86B301449006874
:1023300048310968884221D11648817839B101783D
:10234000491CC9B20170082901D38270C3701248B8
:10235000817839B10178491CC9B20170082901D3CB
:102360008270C3700D488178002907D00178491C1C
:10237000C9B20170082901D38270C37030BD00005A
:102380004001002018000020000000201400002060
:10239000B20B00203803002005040020D1040020E7
:1023A0007047704770470000F8B501680446086838
:1023B000CA684B6910F00F0F4FF0000559D003F0B9
:1023C000010602F49077374365D0C10705D0D105E7
:1023D00003D5616C41F001016164410705D5D9075E
:1023E00003D0616C41F002016164810705D5D90712
:1023F00003D0616C41F004016164010707D502F06C
:102400002001314303D0616C41F008016164616CCB
:1024100000293AD0800604D5900602D5204601F066
:10242000F0FE20684069616CC0F38010090700D499
:1024300060B3204601F0BEFE20684069400621D509
:102440002068143050E8001F21F0400140E80012DD
:10245000002AF5D1E06BA8B16D494163E06BFEF74E
:10246000E7FA002811D0E06B416B01B0BDE8F04005
:10247000084783060FD593060DD52046BDE8F840E2
:1024800001F0BFBE2046FFF78DFFF8BD2046FFF7E5
:1024900089FF6564F8BD266B2023012E7CD1C6061A
:1024A0007AD5D60678D508684868009048694FF014
:1024B0000206400640D5E16B086840680004000C45
:1024C000E8D0A28D8242E5D9E085886920282DD008
:1024D00020680C3050E8001F21F4807140E80012A1
:1024E000002AF5D12068143050E8001F21F00101C6
:1024F00040E80012002AF5D12068143050E8001F8F
:1025000021F0400140E80012002AF5D184F8423061
:10251000256320680C3050E8001F21F0100140E8CE
:102520000012002AF5D1E06BFEF75EFA6663A08D1B
:10253000E18D401A81B22AE0A08DE18D401A81B26E
:10254000E08D0028A6D00029A4D022680C3252E8E1
:10255000000F20F4907042E80007002FF5D12068AA
:10256000143050E8002F22F0010240E80027002F2D
:10257000F5D184F84230256320680C3050E8002FF4
:1025800022F0100240E80023002BF5D166632046BC
:10259000FFF707FFF8BDFFE705062BD5150629D580
:1025A00094F841002128F5D1A068B0F5805F01D1F1
:1025B0002069B0B1206A411C21622168007848601E
:1025C000E08C401E0004000CE084E3D12068C16868
:1025D00021F08001C1602068C16841F04001C16004
:1025E000D8E7206A0088C0F308004860206A801C91
:1025F0002062E5E74006CDD55006CBD5CA68204617
:1026000022F04002CA6084F8413000F0C5F9C1E709
:10261000A541000870B5040004D094F841000025DD
:1026200010B106E0012070BD84F84050204600F053
:1026300023F8242084F841002068C16821F4005167
:10264000C160204601F03EFE2068016921F49041FE
:1026500001612068416921F02A0141612068C16857
:1026600041F40051C1606564202084F8410084F881
:1026700042006563002070BDF0B585B00024009471
:1026800001940294039403685848574E051502219B
:102690000322C714B34225D1C36943F40023C361A5
:1026A000C36903F400230493836943F01003836137
:1026B0008069CDE9005100F01000CDE903204C4DB8
:1026C00069462846FEF70CFCCDE9007469462846A9
:1026D0000294FEF705FC002211463420FEF772FD3D
:1026E000342029E0DFF80CC1434E634528D18369CB
:1026F00043F480438361836903F4804304938369D3
:1027000043F0040383618069039200F004000490A5
:102710007015CDE9000169463046FEF7E1FBCDE9D1
:102720000054694630460294FEF7DAFB0022114657
:102730002520FEF747FD2520FEF736FD05B0F0BD4C
:10274000DFF8B8C0634526D1C36943F40033C361E1
:10275000C36903F400330493836943F00403836182
:102760008069039200F0040004900420CDE9000188
:1027700069463046FEF7B4FB0820CDE900046946FF
:1027800030460294FEF7ACFB002211462620FEF7ED
:1027900019FD2620D0E71A4EB342CFD1C36943F4C6
:1027A0008023C361C36903F480230493836943F0E6
:1027B000080383618069CDE9005100F00800CDE98C
:1027C0000320104D69462846FEF78AFBCDE90074C8
:1027D000694628460294FEF783FB00221146272013
:1027E000FEF7F0FC2720A7E7004C00400010024055
:1027F0000010014000380140000801400044004042
:1028000000480040000C014090F84230202B01D0DD
:102810000220704721B11AB10023036301F0AEBD5D
:102820000120704770B5044600682B490025012639
:10283000884216D12949C87801284BD02848006819
:1028400040684B780A1D98544878401CC0B24870C4
:102850000D70012800D18E70811801222048FFF7E9
:10286000D3FF20492068884217D11C48CD30C17859
:1028700001292FD01C49096849684378021D9954E1
:102880004178491CC9B241700570012900D1867098
:10289000114401221448FFF7B7FF14492068884209
:1028A00018D11348C178012914D012490968496820
:1028B0004378021D99544178491CC9B24170057092
:1028C000012900D18670BDE87040114401220948F9
:1028D000FFF79ABF70BD00000038014038030020A8
:1028E0006002002000440040A80200200048004090
:1028F000D1040020F00200202DE9F843044690F8AE
:102900004100984616460D46202802D00220BDE818
:10291000F88385B17EB100206064212084F84100F5
:10292000FEF7E4FBA6848146E684A0682027B0F584
:10293000805F02D003E00120E9E7206910B12E4654
:1029400000250EE000260CE08021204601F031FD3C
:10295000A8B9C6B116F8010B21684860E08C401E8A
:10296000E084E08C4B464FF00002CDF80080002858
:10297000EAD14FF04001204601F01BFD40B184F840
:1029800041700320C3E735F8020BC0F30800E3E70A
:1029900084F841700020BAE77047FEE72DE9F05F48
:1029A000642401F0C9FE364EDFF8D890DFF8D8A0D5
:1029B0004FF4807B4FF001085D4659463348FEF7DF
:1029C0008BFB07464FF400713046FEF785FB47EA64
:1029D000400729463046FEF77FFB47EA8005802105
:1029E0003046FEF779FB45EAC00540213046FEF748
:1029F00073FB45EA0010C5B2641EE4B20A2002F07F
:102A000085F80F2D01D014B105E0002CD4D199F830
:102A100001004C4660B199F80100012815D09AF8E0
:102A20000510491CC9B28AF8051006291AD01BE006
:102A300001F074FE4FF4FA7002F068F814490420B3
:102A4000887081F8038084F801809AF80410491C8A
:102A5000C9B28AF80410062901D18AF8048002F06C
:102A6000AFF803E08AF8058002F00CF802F062FD8E
:102A700001F054FE002189F80010BDE8F09F00002D
:102A800000100140180000209D05002000080140B2
:102A90001400002070B501F04FFE2848284D294C45
:102AA000C17851B1A9788078012910D0012807D0C8
:102AB000022828D003283AD12DE01E2002F026F863
:102AC000E07864281CD300BF02F0EEFB2FE005285D
:102AD00004D0062808D007282BD10BE0A07A78284C
:102AE00027D2401CA07224E0E07A782821D2401C32
:102AF000E0721EE0207B78281BD2401C207318E077
:102B0000401DE070E0E72078062801D2401C2070CC
:102B100002F0DEF80BE0A078401CC0B2A0700328E1
:102B200001D30320A07002F061FB02F0A3FB02F0CE
:102B300001FD01F0F3FD0020287070BD140000209D
:102B4000180000209D0500202DE9F04101F0F4FD62
:102B5000204D0126072768781F4C4FF000080128F8
:102B600006D185F80180AE7002F02AF8A770E670F1
:102B7000A8780128A07811D0022701281BD00228AC
:102B80001CD0032821D0401CA070E67002F0D2FCBB
:102B900001F0C4FD85F80080BDE8F081052806D06D
:102BA000062806D00728F1D10520A070EEE7062000
:102BB000FBE7A770EAE702F077FBFAE702F088F894
:102BC0000320A07005488770E0E702F00FFB02F0D9
:102BD000FBF9DBE718000020140000209D05002011
:102BE00070B501F0A9FD2B482B4D2C4CC17851B18B
:102BF000A9788078012913D001282AD002282FD063
:102C0000032840D133E01E2001F080FFE078142833
:102C100001D9401FE07002F08DFC02F045FB34E06A
:102C2000052804D0062808D007282ED10BE0A07A6A
:102C300014282AD9401EA07227E0E07A142824D94B
:102C4000401EE07221E0207B14281ED9401E207314
:102C50001BE0E07808B1401FE07002F025FB12E0B5
:102C6000207808B1401E207002F032F80BE0A07806
:102C7000401EC0B2A070012801D80120A07002F04F
:102C8000B5FA02F0F7FA02F055FC01F047FD00201A
:102C9000287070BD14000020180000209D05002041
:102CA0002DE9F047642401F047FDDFF89480254EBC
:102CB0004FF480754FF4007929464046FEF70CFA30
:102CC000074649463046FEF707FA47EA40072946D5
:102CD0003046FEF701FA47EA800780213046FEF7CA
:102CE000FBF947EAC00740213046FEF7F5F947EA0D
:102CF0000010C7B2641EE4B20A2001F007FF1E2FC5
:102D00000BD064B102F060F902F014FC01F006FD92
:102D10000D4900200870BDE8F087002CCCD10B488D
:102D20008179C1F10101817102F02AFC02F002FCFB
:102D300001F0F4FC4FF4FA7001F0E8FEE6E7000061
:102D40000008014000100140180000209D050020EF
:102D50000248002141708170704700001800002077
:102D60002DE9F04104461D4616460F462A2000F084
:102D700001FB204600F01AFB304600F017FB2B2029
:102D800000F0F8FA384600F011FB284600F00EFB80
:102D9000BDE8F0412C2000F0EDBA000070B5040A47
:102DA000C5B20021EF2340F23F120846FFF7D8FFDB
:102DB0000E4900204FF4407201F8104001EB40032F
:102DC000401C80B25D709042F6D301224021084839
:102DD000FEF787F900244FF4C0652946034800F048
:102DE000ABF9641CA4B2642CF7D370BDB20500200B
:102DF000000801402DE9FE4F4FF00008141A474625
:102E0000454699421FD1FFF7ABFF0C980C9A010A77
:102E10003148D2B206E000BF00F8151000EB4503C0
:102E20006D1C5A70AC42F7D8012240212B48FEF7A6
:102E300058F94FF6FF7000EA440103B02648BDE898
:102E4000F04F00F079B9CDE900105E1A4FF0FF3075
:102E5000002C02DD4FF0010102E003D14FF0000130
:102E60008B4602E08346C4F10004002E02DD4FF0E1
:102E7000010002E003D14FF00000824602E08246EA
:102E8000C6F10006B44201DD254600E03546681C67
:102E90004FF0000902901AE000980C9A81B2019854
:102EA00080B200F01DF8A0443744A84505DD019923
:102EB000A8EB050801EB0B000190AF4203DD009881
:102EC0007F1B5044009009F101001FFA80F902991C
:102ED0008945E1DDBDE8FE8FB20500200008014014
:102EE00010B514460B460246FFF73AFF2046BDE8F0
:102EF000104000F05BBA00002DE9F047141A5F1A89
:102F0000641C7F1C7C43002564004FF4C068089E4D
:102F1000444502D9A4F5C0654446FFF721FF370AAE
:102F2000DFF84C90DFF84CA0F6B20020494606E0EE
:102F300001F8107001EB4002401C567080B2B0EBFB
:102F4000540FF5D3012240215046FEF7CAF8A1B232
:102F5000074800F0F1F8002D07D0454502D9A5F546
:102F6000C065E2E72C460025DFE7BDE8F0870000FA
:102F7000B20500200008014010B56A4C0022102163
:102F80002046FEF7AEF80C20FDF784FF0122102149
:102F90002046FEF7A6F80C20FDF77CFF112000F07C
:102FA000E9F90C20FDF776FF362000F0E3F9A020C8
:102FB00000F0EEF93A2000F0DDF9652000F0E8F9C4
:102FC000B22000F0D7F90C2000F0E2F90C2000F05C
:102FD000DFF9002000F0DCF9332000F0D9F93320CC
:102FE00000F0D6F9B72000F0C5F9722000F0D0F952
:102FF000BB2000F0BFF93D2000F0CAF9C02000F06E
:10300000B9F92C2000F0C4F9C22000F0B3F9012076
:1030100000F0BEF9C32000F0ADF9192000F0B8F9B6
:10302000C42000F0A7F9202000F0B2F9C62000F07B
:10303000A1F90F2000F0ACF9D02000F09BF9A420FA
:1030400000F0A6F9A12000F0A3F9E02000F092F929
:10305000D02000F09DF9042000F09AF90D2000F036
:1030600097F9112000F094F9132000F091F92B202A
:1030700000F08EF93F2000F08BF9542000F088F921
:103080004C2000F085F9182000F082F90D2000F0A6
:103090007FF90B2000F07CF91F2000F079F9232044
:1030A00000F076F9E12000F065F9D02000F070F929
:1030B000042000F06DF90C2000F06AF9112000F0F6
:1030C00067F9132000F064F92C2000F061F93F202B
:1030D00000F05EF9442000F05BF9512000F058F94F
:1030E0002F2000F055F91F2000F052F91F2000F0AA
:1030F0004FF9202000F04CF9232000F049F921205D
:1031000000F038F9292000F035F90021EF2340F2D2
:103110003F120846FFF724FEBDE810400020FFF7ED
:103120003DBE0000001001400246012000E0504377
:10313000491EC9B2FBD2704700F0BEBD2DE9F84F61
:10314000203AD6B21C46DDE90A984FF4A072A2EBF1
:103150005402824254D3C4F1F0028A4250DB0A196D
:10316000521E93B200EB5402521E92B2FFF7F8FDCA
:10317000102C17D0202C15D00C2C43D0182C3FD15C
:10318000364906EB46004FF0300B002401EB001AE5
:10319000E0071AF8046051D00427002530064FD507
:1031A00048464EE0600700D0012000EBD4006108E3
:1031B000484300F0FF0A2A48002500EB061B00F5F3
:1031C000BE5000EBC610009018E0102C08D0202C48
:1031D00016D10098465D0027300604D5484603E026
:1031E0001BF80560F7E7404600F0E0F870067F1C2A
:1031F000060EFFB2082FEFD36D1CEDB25545E4D398
:10320000BDE8F88F174806EB46014FF00C0A002482
:1032100000EB810700253E5D300601D5484600E001
:10322000404600F0C3F870066D1C060EEDB2062D88
:10323000F2D3641CE4B25445ECD3E1E70827ACE7D1
:10324000404600F0B3F870066D1C060EEDB2BD42AC
:10325000A4D3641CE4B25C459AD3D1E702C8000849
:1032600012C200089EBD00082DE9FF4F83B0002662
:10327000DDE911A9DDF840B01D46804634464FEA2D
:103280005B0726E0281B401EC1B20A20FFF74CFF57
:103290000599B1FBF0F00A21B0FBF1F201FB12003D
:1032A00026B9691E8C4201DA38B101263030C2B22B
:1032B00007FB048080B25B4604E007FB048080B219
:1032C0005B462022CDE900A90499FFF737FF641C73
:1032D000E4B2AC42D6D307B0BDE8F08F2DE9FC5F75
:1032E000044600F0FF0910190D46DDE90CA61FFA8F
:1032F00080F8581987B2DDF83CB013E0444503D399
:1033000005EB0A004C4685B2BD4210D20E99CDE9BC
:10331000001B534629462046FFF710FF04EB5A00D6
:1033200084B2761C3278A2F120005E28E6D9BDE88E
:10333000FC9F000070B50244DDE90454B2F5A07FA3
:1033400015D80B44F02B12D85B1E521E9BB292B2C2
:10335000FFF706FD012240210548FDF7C2FE284681
:10336000214600F0B1FCBDE8704002F08FB970BD9D
:103370000008014001B5002240210448FDF7B1FEDC
:1033800001216846FFF7D8FE08BD00000008014093
:1033900001B5012240210448FDF7A3FE0121684642
:1033A000FFF7CAFE08BD00000008014008B5002173
:1033B0000091010A8DF800108DF8010001224021D2
:1033C0000348FDF78EFE02216846FFF7B5FE08BDF3
:1033D0000008014030B503464FF6FF704AF2010481
:1033E0001A7850400022C50702D084EA500000E05D
:1033F0004008521CD2B2082AF5D3491E5B1C11F0BA
:10340000FF01EDD130BD0000FEB500252D4800952F
:1034100001952B490295016089158160057301248E
:103420000475072606614FF460214560C0E9064136
:10343000FDF7F2F908B1FCF7B2FF09208DE8310081
:1034400069462048FDF7FAF808B1FCF7A8FF042404
:103450000220CDE9004069461A48FDF7EFF808B1AF
:10346000FCF79DFF0320019069461648FDF7E6F83A
:1034700008B1FCF794FF694612480194FDF7DEF8A5
:1034800008B1FCF78CFF0520019069460D48FDF757
:10349000D5F808B1FCF783FF06200190694609487A
:1034A000FDF7CCF808B1FCF77AFF694605480196AC
:1034B000FDF7C4F8002801D0FCF771FFFEBD000045
:1034C000002401402C000020094808B5416941F062
:1034D000010141614069002200F0010000901146A5
:1034E0000D20FDF76FFEBDE808400D20FDF75CBE26
:1034F000001002402DE9F04F85B0002446480094AA
:10350000019402940394816941F010018161816901
:1035100001F010010491816941F02001816181690C
:1035200001F020010491816941F004018161816908
:1035300001F004010491816941F008018161806911
:10354000DFF8D89000F0080049F642050490002208
:1035500029464846FDF7C5FDDFF8C4A041F2300713
:10356000002239465046FDF7BCFD4FF23C080022D0
:1035700041462C48FDF7B5FDDFF8ACB00022042130
:103580005846FDF7AEFD0095022601250396CDE9CC
:10359000015469464846FDF7A3FC00970396CDE920
:1035A000015469465046FDF79BFCCDF80080039618
:1035B000CDE9015469461B48FDF792FC4FF4707049
:1035C000CDE90004694650460294FDF789FC2802C3
:1035D000CDE90004694648460294FDF781FC0420C9
:1035E000CDE90005CDE9024669465846FDF778FC6D
:1035F000402000900D48CDE9010469460948FDF7D7
:103600006FFC002211461720FDF7DCFD1720FDF7A7
:10361000CBFD05B0BDE8F08F00100240000801406E
:1036200000100140000C0140001401400000111086
:10363000104810B50E4901604FF4827141600021BD
:1036400002228160C0E903121202C0E905120822B9
:10365000C0E90721416281620A21C162FEF794F943
:10366000002803D0BDE81040FCF799BE10BD000053
:10367000003001405C00002030B58DB0002407947C
:10368000089409940A940B941C2168460C94FCF746
:1036900096FD284D264828604720C5E9010440F2E0
:1036A000E730C5E903042846AC61FEF793FB08B197
:1036B000FCF775FE4FF48050079007A91D48FEF7F0
:1036C0003FFC08B1FCF76BFE1A48FEF7CEFD08B1CF
:1036D000FCF765FE0B940BA916480C94FEF73CFB17
:1036E00008B1FCF75CFE6020CDE9000402940822DA
:1036F000694610480494FEF752FD08B1FCF74FFEEE
:103700002868C16921F00801C1610C226946094895
:10371000FEF745FD08B1FCF742FE2868C16921F4B7
:103720000061C1610348FEF713FD0DB030BD00001C
:1037300000080040F800002010B586B000241748AB
:103740000094019402940394049413490594016035
:103750004721C0E9011442F20F71C0E903148461EA
:10376000FEF738FB08B1FCF71AFE4FF480500090CA
:1037700069460A48FEF7E4FB08B1FCF710FE049422
:1037800004A906480594FEF7E7FA002801D0FCF7E3
:1037900006FE06B010BD0000000C004040010020F5
:1037A0001CB500240E4800940C4901940160472187
:1037B000C0E9011440F2E7318461C160FEF70AFB01
:1037C00008B1FCF7ECFD0094694605480194FEF74A
:1037D000C3FA002801D0FCF7E2FD1CBD0010004038
:1037E000880100201CB500240E4800940C49019467
:1037F00001604721C0E9011409218461C160FEF71D
:10380000E9FA08B1FCF7CBFD00946946054801943C
:10381000FEF7A2FA002801D0FCF7C1FD1CBD000094
:1038200000140040D00100200C4810B50A49016086
:103830004FF4E1314160002181600C22C160C0E998
:1038400004128161C161FEF7E5FE002803D0BDE8E6
:103850001040FCF7A4BD10BD004C00401802002031
:103860000C4810B50A4901604FF4E1314160002174
:1038700081600C22C160C0E904128161C161FEF760
:10388000C9FE002803D0BDE81040FCF788BD10BD7C
:1038900000380140600200200C4810B50A49016060
:1038A0004FF4E1314160002181600C22C160C0E928
:1038B00004128161C161FEF7ADFE002803D0BDE8AE
:1038C0001040FCF76CBD10BD00440040A802002071
:1038D0000C4810B50A4901604FF4E1314160002104
:1038E00081600C22C160C0E904128161C161FEF7F0
:1038F00091FE002803D0BDE81040FCF750BD10BD7C
:1039000000480040F0020020FEE7000070B5134CB4
:10391000E078012820D112A000F098FD0025E57084
:103920006078801EC1B2201DFFF754FD6278A11C93
:103930001144098849BA88420ED12079A1280BD1B7
:103940006079032802D0042805D102E000F034F8A1
:1039500001E000F071F8657070BD000038030020D0
:10396000323232200D0A000070B5124CE078012886
:103970001ED10025E5706078801EC1B2201DFFF7C2
:1039800029FD01466278A01C1044008840BA81429B
:103990000ED12079A1280BD16079032802D0042808
:1039A00005D102E000F03AF801E000F081F865701E
:1039B00070BD00000504002030B50320154A1649EB
:1039C0000023062B1DD2DFE803F003070B0F1319AA
:1039D00014186479CC7014E0141864790C7010E039
:1039E000141864798C720CE0141864798C7108E0F6
:1039F000141825798D7464794C7102E01418647977
:103A00008C70801C5B1C9BB2C0B2062BD9D30120EA
:103A1000C87330BD380300209D05002004490548C7
:103A20000A7BC272C97BC174012101747047000016
:103A3000050400209D050020FEB50325144F154EFA
:103A4000002414B1012C1CD103E078194079F071E5
:103A500017E07819104A0179B173407970730F49F2
:103A60001288102009888DE80700F2790323392194
:103A70004FF48770FFF7F8FB01F05AF808A000F048
:103A8000E5FCAD1C641CA4B2EDB2022CD9D3FEBD82
:103A9000380300209D050020240000202200002083
:103AA00074656D7031203D3D3D200D0A0000000021
:103AB0000EB50B480C4B0D49027A0A4802721B885E
:103AC000098810208DE80B00032363214FF48770D1
:103AD000FFF7CAFBBDE80E4005A000F0B7BC000030
:103AE000050400209D050020240000202200002065
:103AF00074656D7032203D3D3D200D0A00000000D0
:103B0000FEE770472DE9FF4F834687B005209246B8
:103B100089460026CDF8180006EB860000EBC601AA
:103B200020489AF8002010F81130934232D100EB6F
:103B300041019AF801004A7882422BD11822684646
:103B4000891CFCF723FB0025684600EB45001DF8A7
:103B500015104FF6FF72477802EA81110F430024D7
:103B60000BEB0508C4F10B0027FA00F0C00709EBC6
:103B700004001FFA88F180B201D0149A00E00A9A7A
:103B8000FFF7AEF9641CE4B20C2CEBD36D1CEDB264
:103B90000C2DD9D3761C0698B6B28642BCD30BB096
:103BA000BDE8F08F1C0C01082DE9FF4F834689B05A
:103BB0001520924689460026CDF82000214806EBC4
:103BC00006119AF8002010F81130934232D100EB20
:103BD00041019AF801004A7882422BD1202268469E
:103BE000891CFCF7D3FA0025684600EB45001DF858
:103BF00015104FF6FF72477802EA01210F430024A7
:103C00000BEB0508C4F10F0027FA00F0C00709EB21
:103C100004001FFA88F180B201D0169A00E00C9AD5
:103C2000FFF75EF9641CE4B2102CEBD36D1CEDB20F
:103C3000102DD9D3761C0898B6B28642BED30DB0EB
:103C4000BDE8F08F5209010810B5144C00224FF462
:103C500000612046FDF745FA002202212046FDF7CB
:103C600040FA0022A1140E48FDF73BFA0D4900204E
:103C700001F1CD02C870487008708870D070507023
:103C800010709070CC32D070507010709070064AE6
:103C900082F86B0081F8CC0010BD000000080140E4
:103CA000000C014038030020B20B00200148FDF752
:103CB000FBBD00005C0000200A460146FF230148CE
:103CC000FDF70CBF5C0000200A4601460148FDF7E5
:103CD000B9BF00005C00002010B5406A0021C18718
:103CE000C186FDF7DFFD10BD10B5406A01684A6866
:103CF00022F003024A60416D41F01001416501214B
:103D000080F85110FDF7CEFD10BD10B5406AFEF7EA
:103D10000BF810BD38B50546446AFDF7E7F90246D1
:103D200028680068800623D42068416821F02001BB
:103D300041602068416821F0020141606421204611
:103D400000F01AF818B1606D40F020006065A068BE
:103D5000002118B92068C26880680090E1860120BF
:103D600084F85100606D18B12046FDF79BFD38BD09
:103D70002046FDF7CDFF38BDF8B515460E460B467B
:103D8000009204460122022100F010F840B93346A7
:103D9000002280212046009500F008F8002804D079
:103DA000606D40F0200060650320F8BD2DE9F84308
:103DB0001E46914688460446089DFDF797F9401B2C
:103DC000351AFDF793F9074625480068C0F3CB3054
:103DD000684338E0701C37D0FDF788F9C01BA84253
:103DE00003D215B1009860B32CE02068416821F03F
:103DF000E00141606068B0F5827F0BD1A068B0F54A
:103E0000004F02D0B0F5806F04D12068016821F026
:103E100040010160A06AB0F5005F09D12068016827
:103E200021F4005101602068016841F400510160F3
:103E3000012084F85100002084F850000320BDE8E0
:103E4000F8830025401E00902068816838EA010050
:103E500004D000214945BDD10020F0E70121F9E758
:103E6000100000207047FDF747B930B595B0282104
:103E70006846FCF7A4F914210AA8FCF7A0F9182158
:103E80000FA8FCF79CF901210804CDE900100025DA
:103E9000029502240491CDE907404FF4E010099007
:103EA0006846FDF76FFB08B172B6FEE70AA90F205E
:103EB00081E831004FF48060CDE90D0502210AA8A8
:103EC000FDF784FA08B172B6FEE74FF40040119096
:103ED0000F940FA8FDF704FA002801D072B6FEE790
:103EE00015B030BD704700000148FEF798B80000DB
:103EF000400100200148FEF792B800008801002030
:103F00000148FEF78CB80000D0010020F0B502682F
:103F1000204C214D214E224F224B4FF0804CA0428D
:103F200009D0984207D0604505D0A84203D0B042DE
:103F300001D0B84204D122F0700E4A6842EA0E0263
:103F4000A04209D0984207D0604505D0A84203D0CE
:103F5000B04201D0B84203D122F44075CA682A4366
:103F60004D6922F080022A4302608A68C2620A68B0
:103F70008262A04201D0984201D109690163012106
:103F800041610169C90703D0016921F001010161A3
:103F9000F0BD0000002C014000040040000800407B
:103FA000000C00400034014010B5846842EA03224E
:103FB00024F47F440A432243826010BD826822F0C9
:103FC00070020A4342F0070181607047F0B5036A4E
:103FD000026A22F00102026242688469124E24F0F1
:103FE00073050C682C4323F002058B682B430D4DA1
:103FF000A84201D0B04205D123F00807CB683B436B
:1040000023F00403A84201D0B04205D14D6922F447
:10401000407215438A692A4342608461496841635A
:104020000362F0BD002C014000340140F0B5026A8B
:10403000036A23F010030362436884690D6824F463
:10404000E64444EA05248D6822F0200242EA051283
:104050000F4D104EA84201D0B04206D1CF6822F0D9
:10406000800242EA071222F04002A84201D0B04288
:1040700007D14D6923F4406343EA85038D6943EA20
:10408000850343608461496881630262F0BD00007A
:10409000002C014000340140F0B5026A036A23F4A9
:1040A000807303624368C46922F4007224F07305CC
:1040B0000C68124E2C438D6842EA05220E4DA84230
:1040C00001D0B04206D1CF6822F4006242EA072252
:1040D00022F48062A84201D0B04207D14D6923F496
:1040E000405343EA05138D6943EA05134360C461F5
:1040F0004968C1630262F0BD002C014000340140F8
:1041000030B5046A026A22F4805202624268C369CE
:104110000D6823F4E64343EA05238D6824F4005434
:1041200044EA0534084DA84202D0084DA84204D103
:104130004D6922F4804242EA85124260C3614968B7
:104140000164046230BD0000002C014000340140D5
:1041500010B5036A046A24F001040462846924F03F
:10416000F00444EA021423F00A020A438461026262
:1041700010BD10B5036A046A24F010040462846957
:1041800023F0A00324F4704444EA023243EA01110C
:104190008261016210BD00000148FEF705B9000010
:1041A0001802002010B5406A0021C185C184FEF7C5
:1041B000F9F810BD01680C3151E8002F22F490721B
:1041C00041E80023002BF5D10168143151E8002F9C
:1041D00022F0010241E80023002BF5D1016B0129F7
:1041E00009D101680C3151E8002F22F0100241E89A
:1041F0000023002BF5D1202180F84210002101631B
:10420000704708B590F84210222901D0022008BD5D
:1042100082684FF480539A4201D1016921B1816AC9
:104220009A421BD04AB10AE00268816A5268C2F31E
:1042300008020A80816A891C08E0026972B102687A
:10424000526802F07F020A70816A491C8162C18D46
:10425000491E0904090CC18503D01BE0026852689D
:10426000F1E70168CA6822F02002CA600168CA68E2
:1042700022F48072CA6001684A6922F001024A6130
:10428000202180F8421000214163026B012A03D0F3
:10429000FEF7C8FA002008BD016301680C3151E83F
:1042A000002F22F0100241E80023002BF5D1016815
:1042B0000A68D20602D50A6849680091818DFEF726
:1042C00070F8E7E770B5044600680169E26821F418
:1042D0004051114301612169A068084361690843A5
:1042E0002168CA6841F20C639A430243CA6020689D
:1042F0004169A26921F44071114341611E4920685E
:10430000884202D1FDF708F901E0FDF7F5F800EB6E
:10431000C00101EB0012606864218000B2FBF0F381
:10432000B3FBF1F36FF018067343B2FBF0F5B2FB89
:10433000F0F605EB8305322303EB0515B5FBF1F52C
:10434000B6FBF1F605F0F00505EB0615B2FBF0F64D
:10435000B2FBF0F0B0FBF1F06FF01802504306EB47
:10436000800003EB0010B0FBF1F0216800F00F00BB
:104370002844886070BD0000003801408162828559
:10438000C28500214164222180F84210016921B1D7
:104390000168CA6842F48072CA6001684A6942F0E2
:1043A00001024A610068C16841F02001C16000203B
:1043B00070472DE9F843984617460D460446089E77
:1043C00024E0701C22D0FCF791FEA0EB0800B04264
:1043D0001AD8CEB12068C168490717D5802D15D0ED
:1043E000402D13D00168C94309070FD40168002587
:1043F000406800902046FFF7DDFE0820606484F8E6
:1044000040500120BDE8F8830320FBE720680068E6
:1044100035EA000004D00020B842D2D00020F1E7F5
:104420000120F9E70148FDF7BFBF0000600200204E
:104430000148FDF7B9BF0000A80200200148FDF7C0
:10444000B3BF0000F0020020FEE700000FB4054BF0
:1044500010B503A9044A029800F028F810BC5DF8D2
:1044600014FB0000F94C0008280000200907090E81
:10447000002804DB00F1E02080F80014704700F011
:104480000F0000F1E02080F8141D704702E008C81A
:10449000121F08C1002AFAD170477047002001E0BE
:1044A00001C1121F002AFBD1704700002DE9FF4F08
:1044B0008BB09A460F460446002606E025280BD00E
:1044C00052460D999047641C761C20780028F5D13F
:1044D0000FB03046BDE8F08F0025A94601227D4986
:1044E00000E0054314F8013F203B02FA03F00842C4
:1044F000F7D120782E2817D114F8010F45F00405C4
:104500002A280ED06FF02F022078A0F1300109295F
:104510000AD809EB890102EB410100EB0109641C97
:10452000F2E757F8049B641C20786C280DD004DC5B
:104530004C2812D06A2811D104E074280DD07A28B2
:104540000CD10AE045F4001507E0617845F48015C8
:10455000814202D1641C05F58015641C207869280D
:104560003ED006DC0028B3D063280BD0642804D1E9
:1045700036E0732810D075285CD052460D999047CC
:10458000761CA5E017F8040B8DF8000000208DF8CC
:104590000100E846012003E057F8048B4FF0FF309C
:1045A00069074FF0000501D40AE06D1C4D450DDA96
:1045B0008542FADB18F805100029F6D106E06D1CDB
:1045C0008542FCDB18F805100029F8D12E4404E0E0
:1045D00018F8010B52460D9990476D1EF8D277E0FE
:1045E00000200A90C5F302504FF00A0B02280CD0AD
:1045F00001CFC117021E71F100020CDA0023D0EBCB
:10460000030063EB01012D2208E0FF1D27F00707DF
:10461000F7E80201EEE72A0504D52B228DF82420C5
:10462000012203E0EA070FD02022F7E70DF120086E
:10463000089218E000200A90C5F302504FF00A0BD0
:10464000022803D001CF00210022EFE7FF1D27F051
:104650000707F7E80201F7E75A460A9BFBF7BAFD9E
:10466000303208F8012D50EA0102F5D1ADEB080017
:1046700000F1200B680701D44FF00109D94502DD94
:10468000A9EB0B0000E000208146002506E009A808
:104690005246405D0D9990476D1C761C08988542E6
:1046A000F5DB04E0302052460D999047761CB9F1B5
:1046B0000001A9F10109F5DC05E018F8010B5246EB
:1046C0000D999047761CBBF10001ABF1010BF4DCB6
:1046D000641CFAE6092801001CB50D48C179807AEE
:1046E00081420BD340F292610A48CDE900011D23BB
:1046F0001A4603216120FEF71DFE1CBD064820233B
:104700007E220088009003216120FEF7F5FB1CBD8E
:104710009D050020B86B00082400002010B59620ED
:1047200000F0F4F90022BDE8104004210148FCF734
:10473000D8BC0000000C0140012204210148FCF714
:10474000D0BC0000000C01407CB53248324D4FF423
:10475000FD64407905F5FD66062859D2DFE800F0D2
:10476000580312223140CDE9005416232E2237215E
:104770005520FEF7DFFDCDE9006416232E223721F8
:10478000912006E0CDE9006416232E223721552022
:104790001DE0FEF7CFFDCDE9006416232E22372160
:1047A000CD2033E0CDE9006416232E223721552099
:1047B000FEF7C0FDCDE9006416232E22372191209B
:1047C0001CE0CDE9005416232E2237215520FEF798
:1047D000B1FDCDE9005416232E2237219120D8E7D0
:1047E000CDE9005416232E2237215520FEF7A2FDD5
:1047F000CDE9005416232E2237219120FEF79AFD91
:10480000CDE9005416232E223721CD20FEF792FD4C
:104810007CBD00009D050020A29300087CB54FF4EC
:10482000FD650D4C16232E2237215520CDE900457C
:10483000FEF780FD16232E2237219120CDE9004579
:10484000FEF778FD16232E223721CD20CDE9004535
:10485000FEF770FD7CBD00008A9B00087CB53248E5
:10486000324D4FF4FD64407905F5FD66062859D2B6
:10487000DFE800F0580312223140CDE9005416233E
:104880002E2261215520FEF755FDCDE90064162347
:104890002E226121912006E0CDE9006416232E220C
:1048A000612155201DE0FEF745FDCDE9006416238A
:1048B0002E226121CD2033E0CDE9006416232E2283
:1048C00061215520FEF736FDCDE9006416232E2226
:1048D000612191201CE0CDE9005416232E22612194
:1048E0005520FEF727FDCDE9005416232E22612125
:1048F0009120D8E7CDE9005416232E2261215520BE
:10490000FEF718FDCDE9005416232E2261219120D7
:10491000FEF710FDCDE9005416232E226121CD2093
:10492000FEF708FD7CBD00009D050020A293000855
:104930007CB54FF4FD650D4C16232E2261215520C8
:10494000CDE90045FEF7F6FC16232E2261219120C9
:10495000CDE90045FEF7EEFC16232E226121CD2085
:10496000CDE90045FEF7E6FC7CBD00008A9B00080F
:104970007CB53248324D4FF4FD64407905F5FD6653
:10498000062859D2DFE800F0580312223140CDE961
:10499000005416232E228A215520FEF7CBFCCDE9A8
:1049A000006416232E228A21912006E0CDE90064BE
:1049B00016232E228A2155201DE0FEF7BBFCCDE9EF
:1049C000006416232E228A21CD2033E0CDE9006435
:1049D00016232E228A215520FEF7ACFCCDE9006477
:1049E00016232E228A2191201CE0CDE900541623A3
:1049F0002E228A215520FEF79DFCCDE90054162376
:104A00002E228A219120D8E7CDE9005416232E22A8
:104A10008A215520FEF78EFCCDE9005416232E2264
:104A20008A219120FEF786FCCDE9005416232E2220
:104A30008A21CD20FEF77EFC7CBD00009D05002074
:104A4000A29300087CB54FF4FD650D4C16232E2271
:104A50008A215520CDE90045FEF76CFC16232E2255
:104A60008A219120CDE90045FEF764FC16232E2211
:104A70008A21CD20CDE90045FEF75CFC7CBD00001D
:104A80008A9B0008134810B50079062821D2DFE878
:104A900000F02003080B1018FFF756FEFFF748FF41
:104AA0000BE0FFF7BBFE06E0FFF7B8FEFFF740FFA5
:104AB0000BE0FFF749FEFFF7D1FEBDE81040FFF71E
:104AC000C1BFFFF741FEFFF7C9FEBDE81040FFF789
:104AD0004FBF10BD9D0500201CB50A4821232B2285
:104AE0000088009003210D20FEF706FA40F2CC6109
:104AF0000548CDE900011E231D2203210D20FEF7EC
:104B000019FC1CBD24000020E45D000842F228319D
:104B100048434FF0E02148610020886101220A618A
:104B20000A69D30701D0D203FAD5086188617047BA
:104B3000FEB50D4C102640F2CF1520880096CDE929
:104B400001500A4F02230D217A7BE920FEF78CFBEE
:104B500020880096CDE90150BA7B02230D214FF445
:104B60008970FEF781FBFEBD240000209D0500201A
:104B700012480146837CCA7C097D012B09D073B1A0
:104B800006D1012A04D1B1B1012901D10521017158
:104B90007047002AF5D10029FAD10121F7E7012A4F
:104BA00005D0002AF4D10129F2D10321EFE7002931
:104BB000EED10221EBE70421E9E700009D0500208A
:104BC0002DE9FC5FFFF75EFF3E48DFF800A13E4F96
:104BD00090F804C00AF530650022012140F2AC5380
:104BE0004FF4B06407F2AC59A5F58456A5F5B06B47
:104BF000BCF1060F64D2DFE80CF0630315243648DD
:104C00008174C2740275CDE9007316232122372105
:104C10001020FEF78FFBCDE900A41623202261218E
:104C2000102005E08274C1740275CDE900931FE085
:104C3000FEF780FBCDE90054162320228A211020A4
:104C40003CE08274C2740175CDE9009316232122E1
:104C500037211020FEF76EFBCDE900A41623202299
:104C60006121102022E08174C1740275CDE90073C6
:104C70001623212237211020FEF75CFBCDE90064CA
:104C80001623202261211020D2E78174C17401759E
:104C9000CDE900731623212237211020FEF74AFBAD
:104CA000CDE900641623202261211020FEF742FB8B
:104CB000CDE900B4162320228A211020FEF73AFB0A
:104CC000BDE8FC9F9D0500204A7200082283000871
:104CD0000EB5074A4FF4FC61182012888DE80700D2
:104CE00004480123C3210278B320FEF7BDFA0EBDAC
:104CF000240000209D05002013B54FF6FF7301220C
:104D000069460248FDF7F8FD00981CBD1802002016
:104D10002DE9F0410FA00122D0E900450F4FD60246
:104D200031463846FCF7DDF90520FFF7EFFE0C4869
:104D300008220146046045600A4800F04BFA002250
:104D400031463846FCF7CDF9BDE8F0410220FFF7C7
:104D5000DDBE0000A10300000005699D00080140C0
:104D6000B20B00206002002070B50FA0104ED0E9F9
:104D70000045012202213046FCF7B3F90520FFF778
:104D8000C5FE0C4808220146046045600A4800F050
:104D900021FA002202213046FCF7A3F9BDE8704059
:104DA0000220FFF7B3BE0000A10300000005699DCB
:104DB00000080140B20B0020A80200202DE9F047B6
:104DC000064630A03149D0E900453068DFF8C080A0
:104DD000304F884218D14FF40069012249464046BD
:104DE000FCF77FF90220FFF791FE3C607D6008220E
:104DF0003946304600F0EEF9002249464046FCF7BD
:104E000070F90220FFF782FE23493068884216D1EC
:104E1000012202214046FCF764F90220FFF776FEEA
:104E20003C607D6008221B49304600F0D3F9002227
:104E300002214046FCF755F90220FFF767FE1749AB
:104E4000306888421CD1DFF858904FF48058012216
:104E500041464846FCF745F90220FFF757FE3C6003
:104E60007D6008220B49304600F0B4F9002241462B
:104E70004846FCF736F9BDE8F0470220FFF746BE8A
:104E8000BDE8F087A104000000026B690038014012
:104E900000080140B20B00200044004000480040E0
:104EA000000C0140F8B53C4D04462878012861D13A
:104EB000FFF72CFE68782346C0F10100C1B2374CE1
:104EC00069704FF493724FF48770082B52D2DFE869
:104ED00003F05104101E2C48545B012902D000F04D
:104EE000E3F947E02088DB236322C32100903F20C1
:104EF0000AE0012902D0FFF7EBFE3BE0208800909A
:104F0000DB23BF22C321B320FDF7F6FF32E00129E6
:104F100002D000F06BF92DE02088DB2300904FF4E5
:104F2000A072C3214FF48B70EEE7012902D0FFF786
:104F300047FE1FE0208800904D23312237211020AA
:104F4000FDF7DAFF208800907723312261211020BD
:104F5000FDF7D2FF2088A02331228A210090102063
:104F6000D2E7012904D12188512300913921CBE7CF
:104F700000F028FB00202870F8BD0129F8D1218815
:104F80007B2300916321BFE70129F1D12188A5236B
:104F900000918D21B8E700001400002024000020BB
:104FA00010B5FFF795FE00F021F900F07DF900F053
:104FB0003BFBFFF791FB00F0E3FAFFF7B9FDBDE81B
:104FC0001040FFF7FDBD000010B5FFF7E9FF0649EF
:104FD0000020C8708870054948708870FFF7F0FDA0
:104FE000BDE81040FFF74EBD14000020180000205F
:104FF00070B52249097801291FD10D0229462048A0
:10500000FCF76AF81F4E044669003046FCF764F866
:1050100044EA400429463046FCF75EF844EA80043E
:1050200080213046FCF758F844EAC004402130465D
:10503000FCF752F844EA0010C0B21B2814D007DC79
:105040000F280DD0172817D1BDE87040FDF722BDFD
:105050001D280DD01E280FD1BDE87040FDF720BEE1
:10506000BDE87040FDF79ABCBDE87040FDF76CBD2F
:10507000BDE87040FDF7B4BD70BD00001800002011
:105080000008014000100140FCF73EF8FEF7EDFE7D
:10509000FEF730FAFEF718FAFEF7B6F9FEF7C8FA8F
:1050A000FEF7EAFAFEF748FBFEF77AFBFEF79AFBFB
:1050B000FEF7BAFBFEF7D4FBFEF7EEFBFEF708FCAB
:1050C0002F48FBF74DFA2F48FCF704FF2E48FCF75A
:1050D00001FF2E48FCF7FEFEFEF7B6FD2C4801222C
:1050E0004178001D01442B48FDF78EFB2A48012220
:1050F0004178001D01442948FDF786FB284801221C
:105100004178001D01442748FDF77EFBFDF720FE96
:10511000FDF732FFFBF702FAFBF744F9FFF740FF18
:10512000214C06E0FFF7F4FDFEF7F0FB3220FFF71D
:10513000EDFCE07B0028F5D007E000BFFFF714FE90
:10514000FEF712FC3220FFF7E1FC207C0028F5D0AE
:10515000FFF70EFDFFF7C0FCFFF722FF13A0FFF7DC
:1051600075F91B4CE178A078FFF79CFEFFF740FF34
:10517000FEF7CCFBFEF7F8FB00F0E6F9F2E70000E3
:105180002C0000204001002088010020D0010020D8
:10519000380300206002002005040020A80200203F
:1051A000D1040020F00200209D0500203D3D3D3D42
:1051B0003D3D3D3D3D20636F6465207374617274B5
:1051C000203D3D3D3D3D3D3D3D3D200D0A00000063
:1051D0001400002010B504464FF47A73FDF78CFBE1
:1051E00020680168C9434906FBD410BDF8B51948C9
:1051F000194C4FF48B718078238840F227160128D0
:1052000012D002281BD003280DD14FF6074513A258
:10521000CA200095FEF7C8FC0095238810A23146ED
:10522000CA20FEF7C1FCF8BD4FF4FC650DA2CA20F0
:105230000095FEF7B9FC009523880BA2EFE74FF627
:10524000E0750AA2CA200095FEF7AEFC00952388FF
:1052500007A2E4E79D05002024000020C7BF00004E
:10526000BEA20000BDDA0000C4DC0000C6D500000C
:10527000CDA800000B48012141708178012908D098
:1052800002290AD0032903D15021C17006210170DF
:1052900070471E21C1700321F9E73221C17004213A
:1052A000F5E700009D0500200EB5074A4FF4FC61AC
:1052B000182012888DE8070004480323C321C27810
:1052C0003F20FDF7D1FF0EBD240000209D050020EA
:1052D000F0B501222D4FD60287B031463846FBF794
:1052E00000FF0520FFF712FCA1208DF80000102020
:1052F0008DF8010000258DF8045006208DF805007A
:105300000C20234C8DF802508DF806008DF80350C8
:105310008DF80750E0788DF808008DF80950207856
:105320008DF80A008DF80B50A07A8DF80C008DF8DE
:105330000D50A0798DF80E00A07C8DF80F006079DB
:105340008DF8100060788DF81100A0788DF81200AB
:1053500013216846FEF73EF8010A8DF813108DF808
:105360001400152269460B48FAF710FF1522094967
:105370000948FFF72FFF002231463846FBF7B1FE00
:105380000220FFF7C3FB657007B0F0BD00080140C5
:105390009D050020B20B00206002002070B52E4E4B
:1053A00086B0012202213046FBF79BFE0520FFF765
:1053B000ADFBA1208DF8000010208DF80100002524
:1053C0008DF8045006208DF805000C20234C8DF834
:1053D00002508DF806008DF803508DF80750E078E4
:1053E0008DF808008DF8095020788DF80A008DF8A6
:1053F0000B50E07A8DF80C008DF80D50A0798DF8E7
:105400000E00E07C8DF80F0060798DF81000607858
:105410008DF81100A0788DF8120013216846FDF771
:10542000D9FF010A8DF813108DF814001522694672
:105430000B48FAF7ABFE152209490A48FFF7CAFEE6
:10544000002202213046FBF74CFE0220FFF75EFBF4
:10545000657006B070BD0000000801409D05002089
:10546000B20B0020A8020020F0B501222D4F160338
:1054700087B031463846FBF734FE0520FFF746FB80
:10548000A1208DF8000010208DF8010000258DF876
:10549000045006208DF805000C20234C8DF8025096
:1054A0008DF806008DF803508DF80750E0788DF8E0
:1054B00008008DF8095020788DF80A008DF80B50FF
:1054C000207B8DF80C008DF80D50A0798DF80E0022
:1054D000207D8DF80F0060798DF8100060788DF8D0
:1054E0001100A0788DF8120013216846FDF772FFB5
:1054F000010A8DF813108DF81400152269460B4827
:10550000FAF744FE152209490948FFF763FE002215
:1055100031463846FBF7E5FD0220FFF7F7FA6570E4
:1055200007B0F0BD000C01409D050020B20B00202B
:10553000F002002010B5FFF7CBFEFFF72FFFBDE80C
:105540001040FFF791BF0000094810B5C07800284F
:105550000DD1084C94F86B00012808D10648FFF7DC
:105560002DFC0648FFF72AFC002084F86B0010BDD4
:1055700014000020B20B002060020020A8020020CE
:105580001CB50D488079012809D00C4821235522EB
:105590000088009003213720FDF7AEFC1CBD4FF4BE
:1055A000E1610748CDE900011E231A460321372097
:1055B000FDF7C0FE1CBD00009D050020240000205A
:1055C000B06400082DE9FE43144C154D10262088C8
:1055D00029880096CDE90110124F4FF487780323F4
:1055E000BA7A39214046FDF73FFE20882988009687
:1055F000CDE90110FA7A032363214046FDF734FE1A
:10560000208829880096CDE901103A7B03238D215B
:105610004046FDF729FEBDE8FE830000240000207F
:10562000220000209D0500202DE9FE43144C154D5D
:105630001026208829880096CDE90110124F4FF4DA
:1056400087780323FA7939214046FDF70DFE20883B
:1056500029880096CDE901103A7A03236321404658
:10566000FDF702FE208829880096CDE901107A7A9C
:1056700003238D214046FDF7F7FDBDE8FE830000C2
:1056800024000020220000209D050020034801780E
:105690000029FCD00021017070470000200000208C
:1056A000010202030405060708090A0B0C0D0E0F80
:1056B0001010010202030405060708090A0B0C0D6D
:1056C0000E0F101000000000000000000102030493
:1056D00006070809000000000102030400000000A2
:1056E00000000000000000000000000000000000BA
:1056F000000000000000000000000000000000208A
:105700000000000000000000000000000000000099
:105710000000000000000000000000000000000089
:105720000000000000000000000000000000000079
:105730000000000000000000000000000000000069
:105740000000000000000000000000000000000059
:105750000000000000000000000000000000000049
:105760000000000000000000000000000020000019
:105770000000000000000000002000000000000009
:105780000000000000000000000000000000000019
:105790000000000000000000000000000000000009
:1057A00000000000000000000000000000200000D9
:1057B00000000000000000000000000000000000E9
:1057C00000000000000000000000000000000000D9
:1057D00000000000000000000000000000000000C9
:1057E0000020000000000000000000200000000079
:1057F0000000000000000020000000000000000089
:105800000000000000000000000000000000000098
:105810000000000000000000000000000000000088
:10582000000000000000000000007BEFE71CFFFF0D
:10583000FFFFE71C7BEF00000000000000000000FD
:105840000000000000000000000000000000000058
:105850000000000000000000000000200000000028
:10586000000000009CF3FFFFFFFFAD75A534F79E1D
:10587000FFFFA51400000000000000000000000071
:105880000000000000000000000000000000000018
:1058900000000000000000000020000000009CF359
:1058A000FFFFD69A18E3002000001082D69AFFFF6F
:1058B000420800000000000000000000000000009E
:1058C00000000000000000000000000000000000D8
:1058D0000000000000000000A514FFFFA514000058
:1058E000000000000000000018E3FFFFB596000074
:1058F0000000000000000000000000000000002088
:105900000000000000000000000000000020000077
:1059100000009492FFFF9CF30000000000000000D4
:10592000000000000000D69AC61800200000000009
:105930000000000000000000000000000020000047
:105940000000000000000000000000000000C61879
:1059500094920000000010A26B6D00200000000077
:105960000000EF7DBDF70000000000000000000017
:105970000000000000000000000000000020000007
:1059800000000020000000000020000000000000D7
:10599000000039C7FFFF0000000000006B6DFFFF33
:1059A00094920000000000000000000000000000D1
:1059B00000200000000000000000002000000000A7
:1059C0006B6D4208000000000000000000000000B5
:1059D000000000000000630CFFFFEF7D108200005C
:1059E00000000000000000000000000000000000B7
:1059F00000000000000000000000A514FFFF630C81
:105A0000000000002104528A000000000000000095
:105A1000630CFFFFEF7D31860000002000000000D6
:105A20000000000000000000000000200000000056
:105A300000000000A534FFFFA514000000200000B6
:105A4000BDF7FFFF000000000000630CFFFFF79EA2
:105A5000318600000000000000000000000000008F
:105A600000000000000000000020000000009CF387
:105A7000FFFFA514000000000000000031A66B6DC0
:105A8000000000002965FFFFEF7D31860000000067
:105A90000000000000000000000000000000000006
:105AA00000000000000000009492FFFFA514000019
:105AB00000000000000000000000000000000000E6
:105AC0003186BDF7318600000000000000000000B4
:105AD00000000000000000000000000000000000C6
